:020000040000FA
:10000000901100206D0100007101000073010000DB
:100010007501000077010000790100000000000078
:100020000000000000000000000000007B01000054
:100030007D010000000000007F0100008101000040
:10004000830100008301000000000000550600004D
:100050008301000083010000830100007D0D00008A
:100060000000000083010000830100008301000004
:1000700083010000000000008301000083010000F4
:100080008301000083010000830100008301000060
:1000900083010000B106000083010000830100001D
:1000A00083010000000000008301000083010000C4
:1000B00000000000000000000000000083010000BC
:1000C00000F002F800F042F80AA090E8000C824428
:1000D0008344AAF10107DA4501D100F037F8AFF205
:1000E000090EBAE80F0013F0010F18BFFB1A43F016
:1000F00001031847CC180000EC180000103A24BF88
:1001000078C878C1FAD8520724BF30C830C144BF7C
:1001100004680C60704700000023002400250026BE
:10012000103A28BF78C1FBD8520728BF30C148BF5A
:100130000B607047642901F05F81782901F0988194
:10014000002070471FB51FBD10B510BD01F018FB92
:100150001146FFF7F7FF01F031F901F036FB03B468
:10016000FFF7F2FF03BC01F077FA000008480047F0
:10017000FEE7FEE7FEE7FEE7FEE7FEE7FEE7FEE757
:10018000FEE7FEE703480449024A044B70470000BB
:10019000C10000009009002090110020900900206B
:1001A000FE4AFF4910F4001F03D04B6823F00043C0
:1001B0004B6010F4801F03D04B6823F000534B605A
:1001C00010F4004F03D04B6823F040034B6010F451
:1001D000807F03D04B6823F020034B6010F0010FA9
:1001E00003D04B6823F004034B6010F4804F03D01E
:1001F0004B6823F010034B6010F4007F03D04B6872
:1002000023F003034B600B6862EA000018400860AB
:100210007047E24AE24910F4001F03D04B6843F0F4
:1002200000434B6010F4801F03D04B6843F0005331
:100230004B6010F4004F03D04B6843F040034B6019
:1002400010F4807F03D04B6843F020034B6010F024
:10025000010F03D04B6843F004034B6010F4804F50
:1002600003D04B6843F010034B6010F4007F03D0C1
:100270004B6843F003034B600B68904318430860DE
:10028000704770B4C74DDFF818C34FF480140C28C2
:1002900017D80C21B1FBF0F200FB1212002A1CBF90
:1002A00070BC7047DCF8042022F4C85242F080424F
:1002B000CCF80420B1FBF0F1491E2943CCF808101A
:1002C00059E050287ED016DC32287CD009DC1E286C
:1002D0007AD030281CBF70BC704740230222032113
:1002E00016E03C2871D046281CBF70BC70474623DE
:1002F000032202210CE05A2868D0642867D06E28B7
:1003000066D078281CBF70BC70473C2303220121B3
:10031000266826F4F85646F400662660DCF8046089
:1003200026F4C85626F08046CCF80460890441EAD9
:100330008231194341F0C051CCF80C10DCF80C109C
:1003400021F00041CCF80C10DCF80C1041F48001D5
:10035000CCF80C10DCF80C1011F0804FFAD0CCF86F
:100360000850DCF8041021F4C05141F4807141F0D0
:100370008041CCF80410DCF804108B4A6FF35C3138
:1003800002EB40321143CCF804108849884A4843B4
:100390001060DCF8081001F00F01491C4143516066
:1003A000DCF80810C1F30311491CB0FBF1F19160B6
:1003B0007E49B0FBF1F0342148434FF47A71B0FB31
:1003C000F1F006E01AE011E00CE013E01AE01DE0A5
:1003D00020E02168C0B221F4F85141EA00202060F9
:1003E00070BC704728230222032191E732230322A5
:1003F00002218DE73C230322022189E750230322B7
:10040000022185E75A230322022181E732230322B6
:1004100001217DE737230322012179E770B4614D83
:10042000DFF87CC14FF480140C2818D80C21B1FBE4
:10043000F0F200FB121100291CBF70BC7047DCF801
:10044000041021F4C85121F08041CCF8041030216F
:10045000B1FBF0F1491E2943CCF8081059E05028AF
:100460007ED016DC32287CD009DC1E287AD03028D9
:100470001CBF70BC704740230222032116E03C28B9
:1004800071D046281CBF70BC70474623032202214E
:100490000CE05A2868D0642867D06E2866D0782887
:1004A0001CBF70BC70473C2303220121266826F440
:1004B000F85646F400662660DCF8046026F4C85658
:1004C00026F08046CCF80460890441EA8231194361
:1004D00041F0C051CCF80C10DCF80C1041F0004198
:1004E000CCF80C10DCF80C1041F48001CCF80C10A6
:1004F000DCF80C1011F0804FFAD0CCF80850DCF882
:10050000041021F4C05141F4807141F08041CCF8D5
:100510000410DCF80410244A6FF35C3102EB403223
:100520001143CCF804104FF40021D1F82C12A1F69D
:10053000BF22B2F59B7F84BF1C49484307D848437C
:100540004FF47A7148431B49A1FB00104008184A38
:100550001060DCF8081001F00F01491C414306E06F
:100560003BE032E02DE034E03BE03EE041E0516032
:10057000DCF80810C1F30311491CB0FBF1F19160E4
:100580000A49B0FBF1F0342141434FF47A70B1FBDA
:10059000F0F02168C0B221F4F8510DE00181300083
:1005A000000006481030000400E0FFFF40420F004A
:1005B00000000020ABAAAAAA41EA0020206070BC7B
:1005C000704728230222032170E7322303220221ED
:1005D0006CE73C230322022168E750230322022117
:1005E00064E75A230322022160E732230322012118
:1005F0005CE737230322012158E742E61249032032
:1006000008607047104900200860704710B5104C12
:100610000E482061606940F0010060610A2000F02E
:10062000A8FE00202061606920F0010060614FF0A9
:10063000FF30FFF7B5FD6E20FFF723FE02490320D0
:10064000086010BD7047000000D008407462966CCE
:100650000000064810B48549CB6B854813F0100F95
:100660004FF0010215D08B6913F0100F0EBFDFF8A9
:1006700004C210BC70470B6884780CF8043083788F
:100680005B1C837042708B6913F0100FF3D010BCA9
:10069000704713F0200F01BF40F6FF70486410BC94
:1006A0007047896911F0800F18BF027010BC704745
:1006B000714910B4CB6B6E4813F0100F4FF001026C
:1006C00015D08B6913F0100F0EBFDFF8A8C110BC56
:1006D00070470B6884780CF8043083785B1C837057
:1006E00042708B6913F0100FF3D010BC704713F0F9
:1006F000200F01BF40F6FF70486410BC7047896945
:1007000011F0800F18BF027010BC70471201B1FBCE
:10071000F2F3B1FBF2FC02FB1C11C901B1FBF2F1D7
:10072000491C490800EB4000800400F1904000F5AE
:10073000803003EB9112426201F03F018162704709
:100740002DE9F0414D4B4E4C00264E4D4FF0E02C24
:10075000002848D09A682F68C2F30362521CB7FB86
:10076000F2F25F6B27F4701747F4A0175F634FF442
:100770000013CCF88032CCF800313D4B1E705E7017
:1007800000EB4000800400F1904000F58030036BE6
:1007900023F0010303630901B2FBF1F3B2FBF1FCA7
:1007A00001FB1C22D201B2FBF1F1491C490803EB09
:1007B0009112426201F03F0181626021C16240F208
:1007C000013101631021816340F6FF7141642E48BD
:1007D00001682EA000F004FE22682968BDE8F041FF
:1007E00030A000F0FDBD2268DF6A27F00F0747F058
:1007F0000507DF620823CCF88032CCF80031BCE773
:1008000000EB4000800400F1904000F58030016072
:10081000816911F0080FFBD170474FF0000C002ADE
:1008200098BF704710B400EB4000800400F1904482
:1008300004F5803411F8013B20462360836913F0EE
:10084000080FFBD10CF1010C9445F3D310BC704799
:10085000064BC2B200211A6001EB41018904194420
:100860008A6912F0080FFBD17047000000000148B0
:100870000C0000201001002000000D480000064878
:1008800008000020040000200000002041434835FB
:1008900031322072756E20617420256420487A0DF3
:1008A0000A000000535243436C6F636B3D20256484
:1008B00020487A2C2050436C6F636B3D20256420C8
:1008C000487A0A009B49887300280CBF087E088B71
:1008D0007047002197488173817C41F02001817429
:1008E000817C11F0200FFBD1817C21F00401817407
:1008F0007047012808D002281CBFFF2070478E488F
:10090000802904D0408870478C488029FAD100881B
:100910007047002808BF7047864A9073874B0020B5
:1009200080290BD05880D18A41F08001D182D18AB0
:1009300021F02001D1828249087070471880518AC5
:1009400041F040015182518A21F010015182F2E7B9
:10095000784A907301237948802905D04380D08A52
:1009600040F02000D08270470380508A40F0100091
:10097000508270470023002998BF7047920002F10F
:10098000804202F5403292F820C05B1C00F801CB97
:100990008B42F8D370470023002998BF704792001C
:1009A00002F1804202F5403210F801CB82F820C0FB
:1009B0005B1C8B42F8D370475E4A9173002903BFDA
:1009C000907C40F002009074A2F840001EBF508A54
:1009D00040F00100508204D0508A10F0010FFBD18A
:1009E0007047907C10F0020FFBD170472DE9F001A9
:1009F00040238C460646402924BF98464D4C28D3B8
:100A000000213046002B82BF950005F1804707F595
:100A1000403706D910F8015B87F82050491C8B42FB
:100A2000F8D8A273002A03BFA07C40F00200A07493
:100A3000A4F840801EBF608A40F00100608224D08C
:100A4000608A10F0010FFBD1ACEB030C1E449C45F7
:100A5000D6D2BCF1000F19BF63460020BDE8F001FB
:100A600070470DD94FEA820101F1804101F5403113
:100A700016F8014B81F8204000F101009842F7D3AD
:100A8000BDE8F0011146184696E7A07C10F0020F71
:100A9000FBD1D9E7F0B4274DAA7332B3F9B1EB8A91
:100AA00023F00103EB82EB8A13F0010FFBD0B5F8C2
:100AB00018C000240346BCF1000F82BF960006F167
:100AC000804707F5403706D997F82060641C03F883
:100AD000016BA445F8D8B1EB0C016044DFD1E88A82
:100AE00020F00100E882F0BC7047002904BFF0BC90
:100AF0007047AB7C13F0010FFBD02B7E00248446A3
:100B0000002B82BF960006F1804707F5403706D9D3
:100B100097F82060641C0CF8016BA342F8D895F894
:100B200012C04CF0400C85F812C0C91A1844E0D12C
:100B3000F0BC7047000003401A000020160000209F
:100B40001400002010B5F84C0020A073207E082867
:100B500018BF10BD00220821F448FFF70BFFA07C4E
:100B600040F04000A074F14908784A7810F0600025
:100B700002F00F0107D020280BD040280FD0BDE88D
:100B80001040FFF7A6BEEA4850F82100BDE810402B
:100B90000047E84850F82100BDE810400047E6490A
:100BA000212A08D0222A18BF10BDD1E90401BDE8CE
:100BB000104000F09FBBD1E90401BDE8104000F0F7
:100BC00089BBD948417821F0010141707047D6486E
:100BD000417841F0010141707047D3480121C18043
:100BE0001E2202818173C28A42F48052C282D34A99
:100BF000D208C2838173D24AD208828302228273CE
:100C0000C38A43F48053C382CE4BDB08C383827311
:100C1000CD4BDB08838381730323C3764FF0400CF5
:100C2000A0F814C081738376A0F810C08273C376D5
:100C3000A0F814C082738376A0F810C000218173DD
:100C4000704710B5BC4CA07810F0010F05D0A0780B
:100C500020F00100A070FFF7C0FFA07810F0020F95
:100C6000B14807D0A17821F00201A170417841F08C
:100C700001014170A17811F0040F07D0A17821F093
:100C80000401A170417821F001014170A07810F0B9
:100C9000080F08BF10BDA07820F00800A070BDE8C4
:100CA00010404FE770B5A44DA879FFF70BFE04B2D2
:100CB000002C08BF70BDAA79A14E214606F58070B0
:100CC000FFF758FEA879022804BF00202871964833
:100CD000C18A21F00101C182EB68002B08BF70BD01
:100CE000A2B206F58071BDE870400020184770B5CB
:100CF000914DA879FFF7E6FD04B2002C08BF70BD46
:100D0000AA798F4E214606F58070FFF733FEA87949
:100D1000012804BF0020E87096F802010F21B1EB12
:100D2000101F1ABF0C21B1EB101F70BD7E48C18A85
:100D300021F00101C182EB68002B08BF70BDA2B297
:100D400006F58071BDE870404FF00100184770B59E
:100D5000794CE078744D102805D10120A873A0715A
:100D6000E071FFF7C4FF2079202818BF70BD022072
:100D7000A873A071E071BDE8704093E770B56A4D4B
:100D8000AE7BA87A6C4C10F0010F03D0A17841F033
:100D90000201A17010F0020F03D0A17841F004010C
:100DA000A17010F0040F03D0A07840F00100A070F3
:100DB000688810F0010F07D0A07840F00800A070FC
:100DC000E078102813D10CE0A888C0B210F0020F10
:100DD0001CBF1021E17010F0040F1CBF20202071F7
:100DE000EEE70120A873A071E071FFF780FF207982
:100DF000202805D10220A873A071E071FFF752FFEF
:100E0000FFF71FFFAE7370BD10B582B000204749D9
:100E1000ADF80000ADF804000878434C10F01F0056
:100E200007D0012814D0022821D0FFF752FD02B0CC
:100E300010BD002202214548FFF7ADFD0021022030
:100E4000FFF7BAFDA07C40F00800A07402B010BD0E
:100E5000002202216846FFF79EFD00210220FFF7D5
:100E6000ABFDA07C40F00800A07402B010BD097971
:100E700001F00F0001F08001FFF73BFDADF8040029
:100E80000022022101A8FFF786FD00210220FFF7C2
:100E900093FDA07C40F00800A07402B010BD23496F
:100EA00010B50878204C10F01F0005D0022810D093
:100EB000BDE81040FFF70DBD4888012804D11E4849
:100EC000018921F002010181A07C40F00800A0749A
:100ED00010BD097901F00F0001F08001FFF719FD45
:100EE000A07C40F00800A07419490120087010BDD2
:100EF00010B50E4A0C4C11461078898810F01F006E
:100F000005D0022843D0BDE81040FFF7E2BC50886E
:100F1000012802D002281DD034E00748018941F0A1
:100F2000020101812EE0000000000340300000209B
:100F300038000020780000202000002070010020F0
:100F400030010020F0010020B00100202800002026
:100F500014000020080A062814D2DFE800F013036A
:100F600006080B110220E0730CE0042000E00120D1
:100F7000E07307E0A07C40F00200A0740820F7E7CF
:100F80001020F5E7A07C40F00800A07410BD01F02F
:100F90000F0001F08001FFF7DBFCF3E7BC4881782C
:100FA000BC480170817C41F008018174704710B524
:100FB00000220121B848FFF719FDB648817C41F0B5
:100FC0000801817410BDB2484088002811BF012873
:100FD000B14908707047FFF77CBC08B5AC490020E8
:100FE0008DF80000087800F01F00012802D0FFF7FC
:100FF00070FC08BD0879A8490022497808448DF89A
:10100000000001216846FFF7F1FCA248817C41F015
:101010000801817408BD9E49087800F01F0001286E
:1010200001D0FFF756BC88789B4948709948817C6D
:1010300041F0080181747047954B10B55988954C63
:10104000080ACAB2D9881B7901280CD0062818D002
:10105000222824D0212841D002284BD0032855D063
:101060000F286ED05BE08D480078884238BF01467B
:1010700000228A48FFF7BAFCA07C40F00800A07468
:1010800010BD87480078884238BF01460022844856
:10109000FFF7ACFCA07C40F00800A07410BD8BB141
:1010A000012B18BF10BD222988BF222100227D48B4
:1010B000FFF79CFCA07C40F00800A074764901205A
:1010C000487110BD222988BF222100227648FFF7EF
:1010D0008DFCA07C40F00800A07410BD092988BFD9
:1010E000092100227148FFF781FCA07C40F0080034
:1010F000A07410BD522988BF522100226C48FFF70E
:1011000075FCA07C40F00800A07410BD5AB1012A03
:1011100018D0022A24D0032A30D0042A3CD0BDE8BB
:101120001040FFF7D6BB63480078884238BF0146BD
:1011300000226048FFF75AFCA07C40F00800A07431
:1011400010BD37E05C480078884238BF0146002275
:101150005948FFF74BFCA07C40F00800A07410BD7C
:1011600056480078884238BF014600225348FFF7AE
:101170003DFCA07C40F00800A07410BD50480078F1
:10118000884238BF014600224D48FFF72FFCA07C63
:1011900040F00800A07410BD4A480078884238BF6B
:1011A000014600224748FFF721FCA07C40F00800E0
:1011B000A07410BD444800224188FFF717FCA07CB2
:1011C00040F00800A07410BDFFF783BB10B50022EB
:1011D0004FF480613D48FFF709FC2E48817C41F0C7
:1011E0000801817410BD10B500224FF480613748AA
:1011F000FFF750FC2748817C41F00801817410BD45
:101200002448817C41F00801817470472148817C29
:1012100041F00801817470471E48817C41F008014B
:10122000817470471B48817C41F0080181747047CC
:1012300070B507254FF0E0218020C1F88002C1F889
:1012400000012348816D21F4F05141F40071816562
:10125000104C607820F0400060704FF47A7000F01D
:1012600088F8E5724020607070BD10B5094C607858
:1012700040F00400607047F6F00000F07AF8607803
:1012800020F00400607010BD0349C8607047000082
:10129000300000200000034020000020A8000020B3
:1012A000BA0000205E1800003C180000C4000020B6
:1012B000EA170000CD000020D1000020E10000204E
:1012C000F5000020FF0000208018000070010020C1
:1012D0000000064810B588B2072818BF10BD0022CC
:1012E000B2210E48FFF782FB0D48817C41F00801D6
:1012F000817410BD10B589B2022918BF10BD000C51
:1013000008BF10BD00221C210648FFF76FFB0448F0
:10131000817C41F00801817410BD0000B918000003
:10132000000003406B19000070B50D0006464FF039
:10133000000406D0315D1CA000F052F8641CA542E8
:10134000F8D8BDE870401AA000F04AB870B50D009A
:1013500006464FF0000407D056F8241015A000F000
:101360003FF8641CA542F7D8BDE8704010A000F01B
:1013700037B8401EFDD270470178C2780270C17044
:10138000417882784270817070470144491E8142E1
:1013900098BF704702780B7800F8013B01F80129EB
:1013A0008142F7D870470000252E327820000000D7
:1013B0000A000000252E387820000000FFF726F9EB
:1013C0004FF4E1310020FFF7BBF9FFF731FF02A036
:1013D00000F006F8FBE700003132330D0A00000090
:1013E0000FB4044910B503AA029800F095F910BC97
:1013F0005DF814FB100000202DE9F04106460024A2
:1014000010687529314616A510D0AFF3008000286A
:1014100002DA404213A507E031688A0701D512A518
:1014200002E0490704D511A5012401E0AFF30080D3
:1014300000210A2206F1240709E0B0FBF2FCB0FB10
:10144000F2F302FB1C00303078541846491C002887
:10145000F3D123462A463046BDE8F04100F002B9F8
:10146000000000002D0000002B0000002000000004
:1014700070B504460D4621461068AFF30080218800
:10148000090502D50F4A7A4402E00E4A7A440E3228
:10149000002104F1240305E000F00F060009965D29
:1014A0005E54491C0028F7D120780023000704D59A
:1014B000702D02D009B1022311322046BDE87040E0
:1014C00000F0D0B8FD0400002DE9F05F8946044625
:1014D0004FF0000ADFF874B1FB44C0F820A02046AA
:1014E000E1688847002874D0252806D0D4E9012176
:1014F0009047206A401C2062F1E700265F462046A4
:10150000E16888472028054607DB312D05D2781988
:1015100010F8200C08B10643F1E7B00701D526F01A
:101520000406C4F81CA00027C4F818A02A2D09D06E
:10153000284600F053F938B304EB8708303DC8F86B
:10154000185019E059F8041B204604EB87029161FA
:10155000E1688847012F054618D1E069002820DAA4
:1015600026F020061DE0D8F8180000EB800005EBFF
:1015700040003038C8F818002046E1688847054622
:1015800000F02CF90028EED1012F0AD02E2D08D121
:101590002046E16888477F1C0546022F46F020065A
:1015A000C4DBA069002803DA404246F00106A061CE
:1015B000F00701D026F010066C2D0BD0682D09D055
:1015C0004C2D39D06A2D35D0742D35D07A2D33D0AD
:1015D00016E038E0E1682F4620468847B8420546C5
:1015E00009D16C2F26D04FF48060E1680643204675
:1015F0008847054604E06C2F1AD04FF480700643EC
:101600000DB3A5F14100192802D8203546F4006633
:101610004A462946204626604E46FEF78BFD80B19D
:1016200001280BD0F61D26F0070000F1080956E747
:101630004020E4E78020D8E70020D6E706F104093F
:101640004DE7284652E7206ABDE8F09FD30400002A
:10165000704770477047000001491820ABBEFEE795
:10166000260002002DE9F0470D46994692460446B1
:1016700000F124080168880604D5E06921F0100112
:10168000216000E00120A84201DD471B00E00027A7
:10169000A1697A1902EB0900081AA0612078C00636
:1016A00002D42046AFF30080002608E0D4E90121EF
:1016B0001AF806009047206A401C761C20624E45AE
:1016C000F4DB2078C0060AD52046AFF3008006E0A0
:1016D000D4E9012130209047206A401C2062381E46
:1016E000A7F10107F4DC07E0D4E9012118F80500AF
:1016F0009047206A401C2062281EA5F10105F3DCFA
:101700002046AFF300802078000602D50220BDE815
:10171000F0870120FBE70000074B70B50D467B44C6
:1017200000F017F80446284600F026F810B14FF0F4
:10173000FF3070BD204670BD2FF1FFFF004870479D
:10174000300900207047000001694A1C02610878D6
:10175000704700B58FB0CDE90131002105910549F1
:101760007944CDE9031011466846FFF7ADFE0FB08E
:1017700000BD0000E5FFFFFF007B00F08000704728
:101780007546FFF7DBFFAE4605006946534620F07D
:101790000700854618B020B5FEF7F4FCBDE82040F0
:1017A0004FF000064FF000074FF000084FF0000B1D
:1017B00021F00701AC46ACE8C009ACE8C009ACE8D0
:1017C000C009ACE8C0098D46704710B50446AFF3B8
:1017D00000802046BDE81040FEF7C1BC30380A2822
:1017E00001D2012070470020704709025200030116
:1017F00000C03209040000020300000209211101A7
:1018000000012222000705810340000107050103B2
:101810004000010904010002030101020921110134
:10182000210122220007058203400001070502036F
:101830004000010904020000FF00000006A0FF09AB
:1018400001A1010903150026FF00750895408108D4
:101850000904150026FF00750895409108C006D0C0
:10186000F10901A1010903150026FF007508954043
:1018700081080904150026FF00750895409108C0ED
:10188000050F3900021810050038B60834A909A060
:10189000478BFDA0768815B665000122001C100557
:1018A00000DF60DDD88945C74C9CD2659D9E648A67
:1018B0009F00000306B20021000A000000000003A0
:1018C00006B200080001000000A8000800020002A3
:1018D00000A0001400030057494E55534200000079
:1018E000000000000000008400040007002A0044FB
:1018F000006500760069006300650049006E0074B1
:1019000000650072006600610063006500470055D5
:1019100000490044007300000050007B003900645F
:10192000003700640065006200620063002D006300
:10193000003800350064002D0031003100640031B2
:10194000002D0039006500620034002D00300030A9
:101950000036003000300038006300330061003191
:1019600000390061007D00000000001C0301736F5E
:10197000776275672E6769746875622E696F2F7755
:1019800065626C69676874303132333435363738A4
:1019900039414243444546403058003031323334B7
:1019A00035363738396162636465664030780004E3
:1019B000000008000000000000000200010000100C
:1019C000E01900000000002010010000FC000000F1
:1019D000F01A000010010020801000001801000023
:1019E00000000000000000000000000000000000F7
:1019F00000000000000000000000000000000000E7
:101A000000000000000000000000000000000000D6
:101A10000000000000000000090E00009F0E000002
:101A2000C9110000F10E0000C91100009D0F000057
:101A300039100000C9110000AF0F0000C70F0000EF
:101A4000DB0F000017100000C9110000C9110000D1
:101A5000C9110000C9110000C9110000CD1100001A
:101A6000011200000D120000C9110000C911000090
:101A7000C9110000C9110000C9110000E7110000E0
:101A8000191200002512000012011002000000408F
:101A9000646A21080001010203010A060210000025
:101AA0000040010009211101000122220004030964
:101AB0000410034300480049005000540045004B07
:101AC000001403570061006C006C00650074002076
:101AD00000530032000A0330003000300031000EA5
:101AE000035700450042005500530042000000002B
:04000005000000C136
:00000001FF
